:020000040000FA
:10000000880500206D0200007102000073020000EC
:100010007502000077020000790200000000000075
:100020000000000000000000000000007B02000053
:100030007D020000000000007F020000810200003D
:10004000830200008302000083020000830200009C
:10005000830200008302000083020000830200008C
:10006000830200008302000083020000830200007C
:10007000830200008302000083020000830200006C
:10008000830200008302000083020000830200005C
:10009000830200008302000083020000830200004C
:1000A000830200008302000083020000830200003C
:1000B0008302000083020000CD17000083020000CD
:1000C000830200008302000083020000830200001C
:1000D000830200008302000083020000830200000C
:1000E00083020000830200008302000083020000FC
:1000F00083020000830200008302000083020000EC
:1001000083020000830200008302000083020000DB
:1001100083020000830200008302000083020000CB
:1001200083020000830200008302000083020000BB
:1001300083020000830200008302000083020000AB
:1001400000000000000000000000000000000000AF
:10015000830200008302000083020000830200008B
:10016000000000000000000000000000000000008F
:10017000000000000000000000000000000000007F
:10018000000000000000000000000000000000006F
:10019000000000000000000000000000000000005F
:1001A000000000000000000000000000000000004F
:1001B000830200008302000083020000830200002B
:1001C000830200008302000083020000830200001B
:1001D000830200008302000083020000830200000B
:1001E00083020000830200008302000083020000FB
:1001F00083020000830200008302000083020000EB
:10020000830200008302000083020000000000005F
:1002100083020000830200008302000083020000CA
:1002200083020000830200008302000083020000BA
:1002300083020000830200008302000083020000AA
:10024000830200008302000083020000830200009A
:10025000830200008302000083020000830200008A
:1002600083020000830200008302000000F00AB84D
:10027000FEE7FEE7FEE7FEE7FEE7FEE7FEE7FEE756
:10028000FEE7FEE700F002F800F0A6F814A696E8F4
:10029000000CB244B344DA4501D100F09DF8BAE84D
:1002A0000F000FA696E83000A5EB040504EB060747
:1002B000AAEB0704A7F101074FEA15154FEA34141A
:1002C000A4F10104AC4201D300F086F813F0010F51
:1002D00018BFFB1A43F0010300F001F8DBE71847F1
:1002E0002C5200004C520000103A24BF78C878C14C
:1002F000FAD8520724BF30C830C144BF04680C602C
:1003000070470000704700000023002400250026ED
:10031000103A28BF78C1FBD8520728BF30C148BF68
:100320000B6070476E2900F06581702900F0A7828C
:10033000662904F0B286652904F0AF86672904F0C7
:10034000AC86612904F0AB8603681B0A28BF41F024
:100350008001692900F01281642900F00F8175295C
:1003600000F00C816F2900F03582782900F073824B
:10037000E92900F0CF81E42900F0CC81F52900F0D3
:10038000C981EF2900F03282F82900F072820368F7
:10039000DB0928BF41F08001632900F077877329CA
:1003A00000F07C87E32900F08787F32900F08C8731
:1003B000002070471FB500F0E1FF0400002000217D
:1003C00003F0B0FD401C60600020002103F094FDAC
:1003D000E0601FBD10B510BD00F0A2FF1146FFF791
:1003E000E9FF02F0AFFA01F07FF803B4FFF7F2FF84
:1003F00003BC01F0C3F8000072B6704762B67047E4
:10040000EFF3108072B6704780F31088704730BFEA
:10041000704702480249014A024B70478801002098
:1004200088050020880100200FB41CB5084B06AADF
:100430007B4469460090059800F0F5F804460020DA
:10044000694600F003F920461CBC5DF814FB00006F
:100450001902000040EA0103024630B59B0710D1A3
:100460004FF0013400E008C208C91D1B9D4315EA86
:10047000C41FF8D013F0FF0102F8011B0DD01B0AB6
:10048000F8E711F8013B002B02F8013B05D011F809
:10049000013B002B02F8013BF3D130BD70477047A0
:1004A000704710B500F0BAFA006810BD10B50446E8
:1004B00000F0B4FA046010BD70B5044685690068A8
:1004C000C10601D5302600E02026C00707D070BD48
:1004D000D4E9012130469047206A401C20626D1EFD
:1004E000F6D570BD70B5044685690078C00707D1A0
:1004F00070BDD4E9012120209047206A401C206271
:100500006D1EF6D570BD09684A0501D540B2704729
:10051000C905FCD500B2704709684A0501D5C0B2CB
:100520007047C905FCD580B2704770B50C460546CA
:10053000012A05D02878800600D5EA69002302E068
:10054000012305E05B1C934202D2E05C0028F9D154
:10055000A869E618C01AA861286A184428622846C3
:10056000FFF7AAFF04E0D5E9012114F8010B904739
:10057000B442F8D32846FFF7B5FF70BD2DE9F0412E
:100580000646002410687529314616A510D0FFF7DD
:10059000BAFF002802DA404213A507E031688A0753
:1005A00001D512A502E0490704D511A5012401E0F7
:1005B000FFF7B2FF00210A2206F1240709E0B0FB91
:1005C000F2FCB0FBF2F302FB1C003030785418460A
:1005D000491C0028F3D123462A463046BDE8F041A5
:1005E00000F065BA000000002D0000002B000000A4
:1005F0002000000011680268006A530501D50870E8
:100600000AE0D30501D5088006E0130603D5C2171A
:10061000C1E9000200E008600120704701694A1C3E
:1006200002610878704700B58FB0CDE90131002133
:10063000059105497944CDE903101146684600F05B
:1006400029F90FB000BD0000E5FFFFFF0A6802F8BE
:10065000010B0A60704700002DE9FF5F15468A46CE
:100660000446DFF8AC80F8440027D8E900103E4685
:10067000CDE9001010E03AF816106A4602A800F022
:1006800027FE411C07D02178890603D5E269391875
:1006900091420DD80744761C2078800602D5E06987
:1006A000B84205DDAE42E6DB3AF816000028E2D19A
:1006B000A069C01BA0612046FFF7FEFED8E900102C
:1006C000CDE90010002017E03AF818106A4602A899
:1006D00000F0FEFDB0F1FF3F81460BD000250DF18B
:1006E000080B05E0D4E901211BF8050090476D1CBB
:1006F0004D45F7D308F10100B0428046E4DB206AA3
:10070000384420622046FFF7EDFEBDE8FF9F000061
:100710004E4C00002DE9F0418046D21D22F0070228
:100720000025D2E90002F52915A614D0011E72F1A8
:10073000000106DA0023D0EB030063EB020211A6EE
:1007400008E0D8F800108B0701D50FA602E0490792
:1007500001D50EA601251146002408F1240704E066
:1007600000F060F930323A55641C50EA0102F7D1CA
:100770002B46324621464046BDE8F04100F097B98D
:10078000000000002D0000002B00000020000000F1
:1007900030B4002100F1240408E002F00705D2087B
:1007A000303542EA4372DB086554491C52EA0305BE
:1007B000F3D10468002310A2250708D504F0200413
:1007C0000C4304D0C46901230CA2641EC46130BC74
:1007D00000F06DB910B5044621461068FFF79CFE85
:1007E00002462046BDE810400023D1E7D21D22F08A
:1007F0000701D1E90023CBE7000000003000000032
:10080000F0B40D460188090502D5214C7C4402E074
:100810001F4C7C440E34002100F1240608E002F055
:100820000F071209E75D42EA03721B097754491C5E
:1008300052EA0307F3D102780023120704D5702D82
:1008400006D009B1022311342246F0BC00F02FB9C2
:1008500001231034F8E770B504460D4621461068B0
:10086000FFF75AFE024629462046BDE870400023A5
:10087000C6E7D21D22F00703D3E90023C0E70368CF
:10088000126843F0200303600823C3610023B7E725
:10089000B04A00002DE9F05F894604464FF0000A97
:1008A000DFF874B1FB44C0F820A02046E168884717
:1008B000002874D0252806D0D4E901219047206A69
:1008C000401C2062F1E700265F462046E168884729
:1008D0002028054607DB312D05D2781910F8200CA9
:1008E00008B10643F1E7B00701D526F00406C4F8C5
:1008F0001CA00027C4F818A02A2D09D0284602F011
:10090000C7FC38B304EB8708303DC8F8185019E02D
:1009100059F8041B204604EB87029161E16888477F
:10092000012F054618D1E069002820DA26F02006BC
:100930001DE0D8F8180000EB800005EB40003038CF
:10094000C8F818002046E1688847054602F0A0FC78
:100950000028EED1012F0AD02E2D08D12046E168C3
:1009600088477F1C0546022F46F02006C4DBA0699D
:10097000002803DA404246F00106A061F00701D0EA
:1009800026F010066C2D0BD0682D09D04C2D39D0D7
:100990006A2D35D0742D35D07A2D33D016E038E05D
:1009A000E1682F4620468847B842054609D16C2F9A
:1009B00026D04FF48060E16806432046884705460C
:1009C00004E06C2F1AD04FF4807006430DB3A5F1EC
:1009D0004100192802D8203546F400664A462946C7
:1009E000204626604E46FFF79DFC80B101280BD0C3
:1009F000F61D26F0070000F1080956E74020E4E75D
:100A00008020D8E70020D6E706F104094DE7284604
:100A100052E7206ABDE8F09F404A00000048704756
:100A20000800002030B5B0F10A0271F100034FEA6E
:100A3000900E4EEA817EB0EB0E0061EB91014FEA21
:100A4000101E4EEA017E10EB0E0041EB11114FEA31
:100A5000102E4EEA016E10EB0E0041EB11214FEA11
:100A6000104E4EEA014E10EB0E0041EB11414018C2
:100A700041F100014FEAD00040EA41704FEAD10154
:100A80004FEA810444EA907410EB800544EB0104C2
:100A90006D1944EB0404521BA3414FF0000348BFFF
:100AA0000A3200D530BD401C41F1000130BD2DE9B6
:100AB000F0470D4699469246044600F12408016825
:100AC000880604D5E06921F01001216000E00120D2
:100AD000A84201DD471B00E00027A1697A1902EB5B
:100AE0000900081AA0612078C00602D42046FFF74A
:100AF000E3FC002608E0D4E901211AF8060090473B
:100B0000206A401C761C20624E45F4DB2078C0062B
:100B10000AD52046FFF7D0FC06E0D4E901213020B9
:100B20009047206A401C2062381EA7F10107F4DCC0
:100B300007E0D4E9012118F805009047206A401C1D
:100B40002062281EA5F10105F3DC2046FFF7CAFC50
:100B50002078000602D50220BDE8F0870120FBE7DF
:100B60002DE9FF4F0C461E464FF0FF378BB0D2E900
:100B70000001DDF860800A908A46C1F30A5505B984
:100B80003D46002108464FF00000BAF1000F00F486
:100B9000400005DA00EB80004FF4400101EA50000C
:100BA0004FEA9059B9F1010F00DDB9460A9850EAB1
:100BB0004A000ED044F61050A5F2FF3545432F14DD
:100BC000B8F1000F1ED07542291E1EDDC9F10002CA
:100BD0001CE0B8F1010F4FF0000001D0302103E01C
:100BE000F24305E02154401CB042FBDB30460022BA
:100BF000002121540B99C1F80880C1E900200FB0F1
:100C0000BDE8F08FBD1B6D1CDEE74A4600DA694285
:100C100006A800F0F7FB06AB93E8070003AB83E8F8
:100C2000070050460A9901F0DFFE8DE80700A0F5A5
:100C300000501F3800900398002D0ADD42F21F017A
:100C40004A460844002303A90390684602F048F985
:100C500009E0A0F500504A461F38002303A903907D
:100C6000684602F052F98DE807000004000C03D03A
:100C70004FF0FF30410800E01046B8F1000F03D0FC
:100C80000022009215461EE0751E05D4FFF7CAFE2D
:100C9000303262556D1EF9D5B3460122084302D0A9
:100CA00000227F1C04E02078302801D100227F1E22
:100CB000002A099784D01DE0112D07DAFFF7B2FE54
:100CC000303262556D1C50EA0102F5D1084302D062
:100CD0000098C8B10EE00021681E05E0235C625C4C
:100CE00063542254401E491C8142F7DBAB46A81BCB
:100CF000401E0990002004F80B000B98099AC0F8D8
:100D00000880C0E9002B7AE711264FF0000857E76A
:100D10002DE9F04F88460446D21D22F0070191B01C
:100D2000D1E90001CDE90A0102F026FA02460B984A
:100D3000C00F01D02D2007E02068810701D52B20AE
:100D400002E0202101EAC000032A099001D0072A0D
:100D500005DB03464146204600F014FB0BE12078FA
:100D6000800601D5E06900E00620B8F1650F8146F4
:100D700006D0B8F1660F18D0B8F1670F70D131E026
:100D80000020B9F1110F009001DB112301E009F1FE
:100D900001030AAA01A90CA8FFF7E2FEDDE90C7025
:100DA000002609F10105834647E001204B460090EB
:100DB0004FF000470AAA01A90CA8FFF7D1FEDDE910
:100DC0000DB00C995D46002610B909F101000D180F
:100DD000B9EB050003D4C0F1FF3609F10105A5EB1D
:100DE00009002BE0B9F1010F01DA4FF001090020F1
:100DF000B9F1110F0090484601DD112300E00346D0
:100E00000AAA01A90CA8FFF7ABFEDDE90C704D465C
:100E100000268346207800070AD4AB4500DA5D46F9
:100E200001A8012D04DD411911F8011C302907D05A
:100E30004F4502DA17F1040F04DA012082460FE071
:100E40006D1EEEE7002F02DCED1B3E4403E0781C34
:100E5000A84200DD7D1CB81B00F1010A4FF00047DD
:100E60002078000703D4AA4501DB4FF0FF3A0021A8
:100E7000B7F1004F0DF143088DF8431024D0022044
:100E80002B23002F01DA7F422D230A21021EA0F11D
:100E9000010000DC5FB197FBF1FC97FBF1F201FB75
:100EA0001C7C17460CF1300C08F801CDEEE7A8F1D8
:100EB000010003702188090501D5452100E0652165
:100EC000A0F1010800F8011C09980FA9A1EB08077F
:100ED000FF1D00B10120411901EBEA70A1693844FE
:100EE000081A401EA0612078C00602D42046FFF7F1
:100EF000E3FA099828B1D4E901219047206A401CFF
:100F000020622078C00622D52046FFF7D5FA1EE0E1
:100F1000002E04DBB34502DD01A8805D00E0302037
:100F2000D4E901219047206A401C2062761CAAF176
:100F300001005FEA000A0AD100F020FAC0680168E7
:100F4000405CD4E901219047206A401C2062281EA1
:100F5000A5F10105DCDC07E0D4E9012118F8010B5B
:100F60009047206A401C2062381EA7F10107F3DC7D
:100F70002046FFF7B7FA032011B041E62DE9F04F04
:100F800004460D46D21D22F0070089B0D0E9009733
:100F90004846394602F0F0F80246F80F01D02D23FA
:100FA00007E02068810701D52B2302E0202101EA18
:100FB000C0038DF820300BB1012000E00020032A8F
:100FC000824601D0072A04DB2946204600F0DAF9E0
:100FD0003FE12078800601D40D2500E0E569C7F3E4
:100FE0000A560D2D49DA00214FEA175B08464FF0EB
:100FF0000000002F00F4400007DA00EB80004FF4FF
:10100000400100EBD07001EA60008115012901DD8B
:101010004FF0FF3100224FEA850CBCF1180F06D3C8
:101020001346ACF118004FF08052C24003E04FF479
:10103000801323FA0CF30CF10C0CBCF1200F04D339
:10104000ACF1200C09FA0CF001E007FA0CF00029D1
:101050004FF0004801DD18B90FE00ED140450CD328
:1010600019EB02095F4121B9404502D19F4329EAAA
:101070000209BBEB175F00D0761C2088000502D563
:101080007B48784402E07A487844193808AA30232B
:1010900002F80A30037C0AF10101002E0AF1020A6B
:1010A00053546A4602DC4FF0300101E04FF0310149
:1010B0004FF001088DF8001002D0A6F2FF3603E0D1
:1010C00059EA470100D06B4E002D02DC2178090758
:1010D00004D54FF002082E218DF80110C4460021DE
:1010E0000BE0C7F303433F01C35C491C6D1E02F8CC
:1010F0000830052908F1010801DA002DF1DC002192
:101100000CE000EB1973491C1B786D1E082902F8CE
:1011100008304FEA091908F1010801DA002DF0DC66
:1011200021688B0602D516E0A8F10108E04505DD2F
:1011300002EB080313F8013C302BF5D0B8F1000F97
:1011400009DD02EB080313F8013C2E2B03D109073C
:1011500001D4A8F10108002D05DD3E2102F8081098
:101160006D1E08F10108407C002E02F8080008F10D
:10117000010804DA2D20764202F8080002E02B2054
:1011800002F808000A214FF47A70864208F101083B
:101190000BDB96FBF0F3303302F8083096FBF0F3EC
:1011A00008F1010800FB136601E0642E0CDB6420EB
:1011B00096FBF0F3303302F8083096FBF0F308F1B9
:1011C000010800FB136601E00A2E06DB96FBF1F036
:1011D000303002F8080008F1010896FBF1F001FB3D
:1011E0001060303002F80800A16908F1010808EB2E
:1011F000050202EB0A00081AA0612078C00602D49A
:101200002046FFF759F9216A08AE01EB0A00206277
:1012100004E0D4E9012116F8010B9047BAF1010A64
:10122000F7D22078C00602D52046FFF745F96E4672
:1012300009E016F8010B3E280FD0D4E901219047B0
:10124000206A401C2062B8F10108F2D22046FFF764
:1012500049F909B00320BDE8F08F206A28442062D4
:1012600003E0D4E90121302090476D1EEBD3F8E76D
:101270009542000002FCFFFF10B5436913B1AFF3C4
:10128000008001E0FFF751F9012010BD127800F154
:1012900024010A7000224A700122EDE711684FF024
:1012A000FF32E9E710B5436913B1AFF3008001E005
:1012B000FFF7D2F9012010BD128800F124018284C9
:1012C0000022C2840122EDE711684FF0FF32E9E706
:1012D0002DE9F04116460C46054600F047F8036834
:1012E00093F80101012807D0FF2C12D8185D80B1B6
:1012F00001202C70BDE8F081D3F807013246214669
:1013000003F20713C7182846BC46BDE8F041002386
:1013100060474FF0FF30EDE70048704708000020BD
:101320007546FFF7F9FFAE4605006946534620F0C3
:101330000700854618B020B5FFF76BF8BDE82040E0
:101340004FF000064FF000074FF000084FF0000B81
:10135000AC46ACE8C009ACE8C009ACE8C009ACE8F0
:10136000C00921F007018D467047000010B500F05C
:1013700005F8001D10BD00BFAD2B000000487047F0
:10138000280000202DE9F0411F460446032601688D
:10139000072A01F4006004DB08B116A505E016A5D4
:1013A00003E008B115A500E015A521F010002060AC
:1013B000A069C01EA0610FB1401EA0612046FFF7CA
:1013C0007BF84FB1D4E9012138469047206A401C90
:1013D0002062C01C206206E0206AFAE7D4E90121FD
:1013E00015F8010B9047761EF8D22046FFF77AF8E1
:1013F000BDE8F0814E414E006E616E00494E4600E0
:10140000696E66002DE9F047814616468AB0354878
:1014100078440DC88DE80D0032487844801C03AC38
:101420000DC884E80D0041F69B300844372190FB3D
:10143000F1F290FBF1F5A5F1800501FB12041B3CD4
:1014400002D56442012000E00020DFF898A0804629
:101450000027FA44AAF1BE0A0EE0E0070AD032469D
:10146000684607EB470101230AEB810101F04DFDBE
:101470008DE8070064107F1C002CEED1194F7F44CB
:10148000AE3F19E0E80715D007EB04100DF1180A7C
:1014900090E80E008AE80E00C068F04201D1981969
:1014A00008903246012306A903A801F02EFD03ABE4
:1014B00083E807006D10641C002DE3D14FF0010399
:1014C00032466946B8F1000F03A802D001F008FDCA
:1014D00001E001F01AFDC9E90001C9F808200AB0CD
:1014E000BDE8F087983F000010B50446AFF30080D8
:1014F0002046BDE81040FEF778BF00000000000065
:1015000030B44FF0013C50F8042B51F8043BCCFAB6
:1015100052F4D51A20D1FCB950F8042B51F8043BF1
:10152000CCFA52F4D51A17D1B4B950F8042B51F8AB
:10153000043BCCFA52F4D51A0ED16CB950F8042BF6
:1015400051F8043BCCFA52F4D51A05D1002CDAD06C
:1015500030BC4FF00000704729BAB1FA81F111F0A8
:101560001801D1F120008440F2D1CA40CB4012F0E2
:10157000FF0213F0FF0330BCD01A70470149182056
:10158000ABBEFEE726000200704700004EF20811D5
:10159000C4F20F01086840F020000860FFE74EF237
:1015A0000810C4F20F00006800F02000202801D0CD
:1015B000FFE7F4E745F22051C4F2020144F24B3058
:1015C000C4F64F40086045F22451C4F20201086895
:1015D00040F01100086045F22851C4F20201086889
:1015E00020F01100086045F22C51C4F20201086895
:1015F00020F00F10086045F20041C4F202010868B3
:1016000020F01100086045F22041C4F20201086890
:1016100020F01100086045F21051C4F20201086880
:1016200040F01100086045F21C51C4F20201086844
:1016300040F01100086045F20441C4F2020108685C
:1016400020F01100086045F20841C4F20201086868
:1016500020F01100086045F20C41C4F20201086854
:1016600040F01100086045F21C41C4F20201112053
:10167000086045F21041C4F20201086840F0110010
:1016800008604EF21C41CEF200010868062262F3A7
:10169000575008604EF20011CEF20001086840F089
:1016A000804008607047000081B0009000980138C9
:1016B00046F22801C4F20301086046F20C01C4F2AC
:1016C0000301086840F001000860FFE746F24800A7
:1016D000C4F20300006808B1FFE7F7E746F20C0127
:1016E000C4F20301086820F00100086001B07047EF
:1016F00080B582B0009000998868C96803F06FFADD
:1017000058B9FFE700998868096903F068FA20B9B9
:10171000FFE700208DF8070029E000988168C06885
:1017200003F05DFA58B9FFE70099C868096903F04A
:1017300056FA20B9FFE701208DF8070017E000985E
:101740008168006903F04BFA58B9FFE70098C16857
:10175000006903F044FA20B9FFE702208DF8070082
:1017600005E0FFE7FFE703208DF80700FFE79DF89E
:10177000070002B080BD000080B582B0ADF8060061
:10178000BDF9060010F15A0F05DBFFE7BDF90600B1
:101790005B2801DBFFE716E0BDF906006A4641F26F
:1017A000873111606FF059015A2240F2E73301F09E
:1017B000DDF8ADF80400BDF9040048F25801C4F2A8
:1017C00002010860FFE702B080BD000045F218404A
:1017D000C4F20200006800F0100045F21C41C4F29F
:1017E0000201086040F28800C2F200000178013175
:1017F00045F25652C5F25552A1FB023202EB4202AB
:10180000891A0170017840F20000C2F20000405CC9
:1018100045F23801C4F202010860704781B08DF8CA
:1018200002008DF80110FFE70420C4F202000068F6
:10183000C00708B1FFE7F7E79DF80200400000216C
:10184000C4F2020108609DF801000821C4F20201FF
:1018500008600421C4F2020103200860FFE70420AD
:10186000C4F202000068C00708B1FFE7F7E79DF87F
:101870000200400001300021C4F20201086004218E
:10188000C4F2020107200860FFE70420C4F202004E
:1018900000684006002801D5FFE7F6E70420C4F2FF
:1018A0000200006800F00E008DF800009DF90000B5
:1018B00028B1FFE79DF800008DF8030006E008203E
:1018C000C4F2020000688DF80300FFE79DF80300F2
:1018D00001B070474EF20811C4F20F01086840F0E1
:1018E00020000860FFE74EF20810C4F20F00006805
:1018F00000F02000202801D0FFE7F4E745F2245152
:10190000C4F20201086840F00E00086045F2285158
:10191000C4F20201086820F00E00086045F22C5164
:10192000C4F2020108684FF6F0729043086045F275
:101930000041C4F20201086840F00E00086045F260
:101940002041C4F20201086820F00E00086045F250
:101950001051C4F20201086820F00E00086045F240
:101960001C51C4F20201086840F00E000860704784
:1019700080B584B00390682000903C21FFF74EFFB3
:10198000014600988DF80B103B21FFF747FF0146F9
:1019900000988DF80A103E21FFF740FF014600989D
:1019A0008DF809103D21FFF739FF014600988DF8A9
:1019B00008104021FFF732FF014600988DF807100C
:1019C0003F21FFF72BFF8DF806009DF80A109DF8C8
:1019D0000B0040EA0120039908809DF808109DF84B
:1019E000090040EA0120039948809DF806109DF8FF
:1019F000070040EA01200399888004B080BD000000
:101A000080B5A8B027902691259227998868C96843
:101A1000179103F033F8024617981A921B9103F0BE
:101A20002DF800221D924FF080431E9301F048FDD7
:101A3000189019912798006903F020F81D9A1E9BB1
:101A400001F03EFD024618980B46199902F0B2FAD1
:101A500002F02CFA02461A980B461B9902F066FB1C
:101A600001F01EFC42F68762C7F6DE1223924AF2AC
:101A70001363C4F24C03249302F006FD02F068FAEB
:101A800025990860279881681C91C06802F0F6FFCC
:101A900002461C982192229102F0F0FF1D9A1E9B93
:101AA00001F00EFD1F9020912798006902F0E6FFDB
:101AB0001D9A1E9B01F004FD02461F980B462099BB
:101AC00002F078FA02F0F2F9024621980B462299C8
:101AD00002F02CFB01F0E4FB239A249B02F0D4FCDF
:101AE00002F036FA25994860269800694FF0814146
:101AF00003F06EF800284BD1FFE72798806802F0CA
:101B0000BDFF00220C924FF080430D9301F0D8FCF2
:101B10000E900F912798C06802F0B0FF0C9A0D9BB1
:101B200001F0CEFC02460E980B460F9902F042FAE5
:101B300002F0BCF9109011912798006902F09EFF05
:101B4000024610980B46119902F0F0FA01F0A8FB3A
:101B50001290139125981690806802F08FFF02462C
:101B6000129814920A461399159242F68762C7F6A4
:101B7000DE124AF21363C4F24C0302F085FC149A9D
:101B8000159B02F017FA02F0E3F91699886057E006
:101B9000269800690021CCF2800103F012F8002899
:101BA0004DD1FFE72798806802F068FF002201927C
:101BB0004FF08043029301F083FC03900491279837
:101BC000C06802F05BFF019A029B01F079FC0246BB
:101BD00003980B46049902F0EDF902F067F90590BD
:101BE00006912798006902F049FF024605980B46C6
:101BF000069902F09BFA01F053FB07900891259893
:101C00000B90806802F03AFF0246079809920A4654
:101C100008990A9242F68762C7F6DE124AF2136307
:101C2000CCF24C0302F030FC024609980B460A99AC
:101C300002F0C0F902F08CF90B998860FFE7FFE72A
:101C400028B080BD80B584B0039068200090442106
:101C5000FFF7E4FD014600988DF80B104321FFF7D4
:101C6000DDFD014600988DF80A104621FFF7D6FDEC
:101C7000014600988DF809104521FFF7CFFD014678
:101C800000988DF808104821FFF7C8FD014600981C
:101C90008DF807104721FFF7C1FD8DF806009DF86C
:101CA0000A109DF80B0040EA0120039908809DF876
:101CB00008109DF8090040EA0120039948809DF82A
:101CC00006109DF8070040EA01200399888004B0BF
:101CD00080BD000080B598B0179068201C21FFF7E8
:101CE0009DFD8DF85B009DF95B000146159118285C
:101CF00000F2F0801599DFE811F01900ED00ED0019
:101D0000ED00ED00ED00ED00ED004E00ED00ED000A
:101D1000ED00ED00ED00ED00ED008300ED00ED00C5
:101D2000ED00ED00ED00ED00ED00B800179810900B
:101D3000B0F9000003F05CF802F0A0FE002212925D
:101D40000023C4F2D003139302F0F0F902F000F97B
:101D50001099886017981190B0F9020003F048F8C4
:101D600002F08CFE129A139B02F0E0F902F0F0F8F8
:101D70001199C86017981490B0F9040003F038F86E
:101D800002F07CFE129A139B02F0D0F902F0E0F808
:101D9000149908619EE017980B90B0F9000003F0C9
:101DA00027F802F06BFE00220D920023C4F2C0035C
:101DB0000E9302F0BBF902F0CBF80B9988601798EC
:101DC0000C90B0F9020003F013F802F057FE0D9AE0
:101DD0000E9B02F0ABF902F0BBF80C99C8601798A3
:101DE0000F90B0F9040003F003F802F047FE0D9ADB
:101DF0000E9B02F09BF902F0ABF80F99086169E0C5
:101E000017980690B0F9000002F0F2FF02F036FEDB
:101E1000002208920023C4F2B003099302F086F96D
:101E200002F096F80699886017980790B0F90200BA
:101E300002F0DEFF02F022FE089A099B02F076F91A
:101E400002F086F80799C86017980A90B0F9040064
:101E500002F0CEFF02F012FE089A099B02F066F92A
:101E600002F076F80A99086134E017980190B0F909
:101E7000000002F0BDFF02F001FE002203920023E9
:101E8000C4F2A003049302F051F902F061F8019941
:101E9000886017980290B0F9020002F0A9FF02F0E2
:101EA000EDFD039A049B02F041F902F051F802990A
:101EB000C86017980590B0F9040002F099FF02F08D
:101EC000DDFD039A049B02F031F902F041F8059917
:101ED0000861FFE718B080BD80B598B01790682002
:101EE0001C21FFF79BFC8DF85B009DF95B00014610
:101EF0001591182800F2F6801599DFE811F0190005
:101F0000F300F300F300F300F300F300F3004F00DD
:101F1000F300F300F300F300F300F300F300850097
:101F2000F300F300F300F300F300F300F300BC0050
:101F300017981090B0F9000002F05AFF02F09EFDD1
:101F40000022129246F20003C4F26003139302F0DF
:101F5000EDF801F0FDFF1099886017981190B0F925
:101F6000020002F045FF02F089FD129A139B02F075
:101F7000DDF801F0EDFF1199C86017981490B0F9E1
:101F8000040002F035FF02F079FD129A139B02F073
:101F9000CDF801F0DDFF14990861A3E017980B90CC
:101FA000B0F9000002F024FF02F068FD00220D925B
:101FB00046F20003C4F250030E9302F0B7F801F0AA
:101FC000C7FF0B99886017980C90B0F9020002F0D7
:101FD0000FFF02F053FD0D9A0E9B02F0A7F801F0DF
:101FE000B7FF0C99C86017980F90B0F9040002F081
:101FF000FFFE02F043FD0D9A0E9B02F097F801F0F0
:10200000A7FF0F9908616DE017980690B0F90000DE
:1020100002F0EEFE02F032FD4FF06632089246F218
:102020006663C4F24003099302F080F801F090FF68
:102030000699886017980790B0F9020002F0D8FE60
:1020400002F01CFD089A099B02F070F801F080FF75
:102050000799C86017980A90B0F9040002F0C8FE0A
:1020600002F00CFD089A099B02F060F801F070FF85
:102070000A99086136E017980190B0F9000002F063
:10208000B7FE02F0FBFC4FF06632039246F2666345
:10209000C4F23003049302F049F801F059FF0199AA
:1020A000886017980290B0F9020002F0A1FE02F0D9
:1020B000E5FC039A049B02F039F801F049FF02990C
:1020C000C86017980590B0F9040002F091FE02F084
:1020D000D5FC039A049B02F029F801F039FF059919
:1020E0000861FFE718B080BD80B582B08DF80700A9
:1020F0009DF807000146009107281ED80099DFE8E7
:1021000001F0040A070D1013161900F05FF915E02D
:1021100000F0AAF912E000F04DFB0FE000F0BEF96C
:102120000CE000F0DDFA09E000F078FA06E000F0DB
:10213000B3F903E000F062F900E0FFE702B080BD10
:102140004EF20811C4F20F01086840F00200086066
:10215000FFE74EF20810C4F20F00006800F0020022
:10216000022801D0FFE7F4E745F22041C4F2000164
:10217000086840F04000086045F22C51C4F20001AC
:10218000086820F070600860086840F080600860AF
:1021900045F22851C4F20001086820F040000860B0
:1021A00045F21C51C4F20001086840F0400008608C
:1021B00045F20851C4F20001086840F04000086090
:1021C0004EF24061C4F20F01086840F0010008605F
:1021D0004EF26001C4F20F01086840F480100860FC
:1021E000086820F460200860086840F480200860D7
:1021F00048F24001C4F202010020086048F2600386
:10220000C4F202031A6842F0C8021A6048F250038E
:10221000C4F2020349F63F421A6048F25802C4F27F
:1022200002021060086840F00100086048F20801EE
:10223000C4F20201086840F0010008607047000025
:1022400080B582B0292000909A21FFF7E7FA014675
:1022500000988DF807109B21FFF7E0FA8DF8060033
:102260009DF806109DF8070040EA0120ADF8040033
:102270000320FFF719FABDF8040002B080BD00008A
:1022800080B582B0292000909421FFF7C7FA01465B
:1022900000988DF807109521FFF7C0FA8DF8060019
:1022A0009DF806109DF8070040EA0120ADF80400F3
:1022B0000320FFF7F9F9BDF8040002B080BD00006B
:1022C00080B582B0292000909821FFF7A7FA014637
:1022D00000988DF807109921FFF7A0FA8DF80600F5
:1022E0009DF806109DF8070040EA0120ADF80400B3
:1022F0000320FFF7D9F9BDF8040002B080BD00004B
:1023000080B582B0292000909621FFF787FA014618
:1023100000988DF807109721FFF780FA8DF80600D6
:102320009DF806109DF8070040EA0120ADF8040072
:102330000320FFF7B9F9BDF8040002B080BD00002A
:1023400080B588B007900798C08840B9FFE7079923
:10235000002008610799C8600799886033E00798F2
:102360000290008802F044FD014602980191C08865
:1023700002F056FD0146019802F044FC0299886083
:1023800007980490408802F033FD014604980391B9
:10239000C08802F045FD0146039802F033FC049921
:1023A000C86007980690808802F022FD01460698D2
:1023B0000591C08802F034FD0146059802F022FC28
:1023C00006990861FFE708B080BD000080B540F2C3
:1023D0008800C2F20000017840F20000C2F2000062
:1023E000425C45F23801C4F20201086850400860BE
:1023F0004FF4FA70FFF758F980BD000080B582B045
:1024000045F23801C4F202010220086040F21810BF
:10241000C2F20000019045F2D941C0F20001FEF77E
:1024200019F840F27C00C2F20000006802F026FBBE
:1024300002460B4640F2B400C2F2000045F2F441FD
:10244000C0F20001FDF7F0FF019A40F2E600C2F28F
:10245000000045F20051C0F20001FDF7E5FF142035
:10246000FFF722F902B080BD80B582B02920922109
:10247000FFF7D4F9024640F21E10C2F200000190AC
:1024800045F2A541C0F20001FDF7CEFF019800F032
:102490001DFA02B080BD00007047000070B59AB010
:1024A00040F26800C2F200000490FFF761FA40F2C7
:1024B0008C00C2F200000B90FFF7C4FB0498FFF7FA
:1024C00009FC0B98FFF708FD45F2DD40C0F2000063
:1024D00000F0FCF904980B9940F27C02C2F2000271
:1024E0001292FFF78DFA04998868CA680592096903
:1024F000069102F0C3FA024605980892099102F08B
:10250000BDFA024606980A92079102F0B7FADDF882
:102510001CC0089A099B86460A980C466946CC60FE
:10252000C1F808E0C1F804C0086040F21E10C2F211
:102530000000199045F27741C0F200011191FDF7BA
:1025400073FF199800F0C2F945F2D530C0F20000CF
:1025500000F0BCF90B998868CA680C9209690D9162
:1025600002F08CFA02460C980F92109102F086FA53
:1025700002460D980E920C4602F080FADDF838C043
:102580000F9A109B054619980E461199EE46CEF803
:102590000C60CEF80850CEF80440CEF800C0FDF72D
:1025A00043FF199800F092F945F2C430C0F20000E0
:1025B00000F08CF9129908684A681392896814919E
:1025C00002F05CFA024613981592169102F056FA40
:1025D000024614981892179102F050FA159A169B19
:1025E000DDF85CE0044619980D461899EC46CCF8E5
:1025F0000C50CCF80840CCF804E0CCF8001045F2C0
:10260000E241C0F20001FDF70FFF199800F05EF9FA
:102610003220FFF749F81AB070BD000080B584B0D1
:1026200045F2E530C0F20000019000F04FF90020C3
:102630000290FFF7A1F84FF47A700390FFF734F897
:1026400045F25940C0F2000000F040F96FF02C0054
:10265000FFF792F80398FFF727F8019800F036F992
:102660000298FFF789F80398FFF71EF845F23C40FF
:10267000C0F2000000F02AF92D20FFF77DF8039842
:10268000FFF712F8019800F021F90298FFF774F8AB
:102690000398FFF709F845F21E40C0F2000000F071
:1026A00015F96FF05900FFF767F80398FEF7FCFF84
:1026B000019800F00BF90298FFF75EF80398FEF717
:1026C000F3FF45F20140C0F2000000F0FFF85A208D
:1026D000FFF752F80398FEF7E7FF04B080BD000053
:1026E00080B586B000F006F9FFF70AFE40F2A001BF
:1026F000C2F2000104910880FFF7E2FD04994880CE
:10270000FFF79EFD04998880FFF7BAFD0499C88001
:102710001B20029000F0C2F85B2000F0BFF83220CE
:1027200000F0BCF8029800F0B9F8049802884388D9
:1027300080886946086040F21E10C2F200000390D3
:1027400045F2AE41C0F20001FDF76EFE039800F0C5
:10275000BDF80498FFF7F4FD0498FEF7C9FF0146A1
:102760000591032820D80599DFE801F00209101728
:1027700045F23801C4F202010220086014E045F27B
:102780003801C4F20201082008600DE045F238016A
:10279000C4F202010420086006E045F23801C4F2E8
:1027A000020100200860FFE70A20FEF77DFF06B067
:1027B00080BD000080B582B000F09CF80020019040
:1027C000FFE7019802F05AF902460B4640F21E104C
:1027D000C2F20000009045F28D41C0F20001FDF709
:1027E00023FE009800F072F84FF47A70FEF75CFF59
:1027F00001984FF07A5102F06DF90190E1E7000085
:102800004EF20411C4F20F01086840F001000860A4
:102810004EF20811C4F20F01086840F00100086090
:102820004CF23001C4F20001002008604CF2240098
:10283000C4F20000112202604CF22803C4F200032B
:10284000122018604CF22C03C4F2000370201860B0
:10285000086840F201331843086044F22041C4F292
:102860000001086840F00300086044F21C51C4F203
:102870000001086840F00300086044F22C51C4F2E3
:102880000001086862F30700086044F22851C4F2AE
:102890000001086820F003000860704781B08DF8DF
:1028A0000300FFE74CF21800C4F200000068800645
:1028B000002801D5FFE7F5E79DF903004CF2000180
:1028C000C4F20001086001B07047000080B582B01A
:1028D0000190FFE70198007848B1FFE7019890F96F
:1028E0000000FFF7DBFF019801300190F2E702B032
:1028F00080BD00004EF25C61C4F20F01086840F038
:102900000100086046F20C01C4F20301086820F0DF
:102910000100086046F20001C4F20301086840F0BB
:102920000400086046F20401C4F20301086840F0A4
:102930000200086046F23801C4F2030143F67F60EA
:102940000860704780B582B000200190FFF758FF03
:10295000FEF7C0FFFEF71AFEFFF7CCFFFFF7F0FB14
:10296000FFE70520FFF7C0FBFBE7000080B583B061
:1029700084460598ADF808C0ADF80610ADF80420FF
:10298000ADF80230ADF80000BDF90800BDF9061041
:10299000884205DAFFE7BDF80600ADF80A001FE03F
:1029A000BDF90800BDF90410884205DDFFE7BDF858
:1029B0000400ADF80A0013E0BDF90800BDF90630C7
:1029C000C01ABDF90020BDF90210521A5043BDF9DA
:1029D0000420D21A90FBF2F00844ADF80A00FFE799
:1029E000BDF90A0003B080BD5FEA400C08BF91F05A
:1029F000000F4FEA8C234FEAC12243EA51514FEABC
:102A00001C5018BF00F5F0404FEA300018BF41F0ED
:102A100000415FEA6C5C00F02980BCF1FF3F08BF19
:102A200040F080407047130C06BF12044FF0100CAA
:102A30004FF0000C130E04BF12020CF1080C130F20
:102A400004BF12010CF1040C930F04BF92000CF1AF
:102A5000020CD30F04BF52000CF1010C11464FF0D1
:102A60000002A0F11F00A0EB0C00704711F0004F16
:102A700008BF704731F000413FF4D5AF0B0C06BFE3
:102A800009044FF0100C4FF0000C0B0E04BF0902AC
:102A90000CF1080C0B0F04BF09010CF1040C8B0F97
:102AA00004BF89000CF1020CCB0F04BF49000CF1EC
:102AB000010CCCF1200322FA03F341EA030102FAEC
:102AC0000CF2A0EB0C0000F10100704723F07F47EF
:102AD00020F07F4C80EA030000F00040ACEB0703DD
:102AE00003F57C5303F1FF032DE9804909B44FEA54
:102AF000144324EA03484FEA154B25EA0B4E0FF224
:102B0000042606EB13273E7803FB0667C7F500078C
:102B100007FB06F64FEAD64606F102064FEA54379F
:102B200007FB066CCCF1005C4FEA1C472CEA074C13
:102B30000CFB06F507FB06F404EB15464FEA961668
:102B400049085FEA320234BF00204FF000404FEAEC
:102B5000D13706FB07FC4FEA1C4C0CFB0BF7D21BD2
:102B600003FB0CF761EB07010CFB0EF7B0EB074022
:102B700072EB17420CFB08F734BFA2EB0742B2EB33
:102B8000074261EB17414FEA0C444FEA910706FBFD
:102B900007FC4FEA1C4C0CFB0BF7B0EBC74072EB89
:102BA000573203FB0CF734BFA2EBC742B2EBC7426C
:102BB00061EB57310CFB0EF7B0EBC70072EB5772AD
:102BC0000CFB08F734BFA2EBC702B2EBC70261EB04
:102BD00057714FEA816141EA92114FEA826242EAFB
:102BE00090124FEA806004EBCC04039F4FEAD13788
:102BF00006FB07FC4FEA1C4C0CFB0BF7D21B03FB3C
:102C00000CF761EB07010CFB0EF7B0EB074072EB22
:102C100017420CFB08F734BFA2EB0742B2EB0742A6
:102C200061EB17414FEA8C5504EB9C244FEA910766
:102C300006FB07FC4FEA1C4C0CFB0BF7B0EBC74044
:102C400072EB573203FB0CF734BFA2EBC742B2EB77
:102C5000C74261EB57310CFB0EF7B0EBC70072EBCC
:102C600057720CFB08F734BFA2EBC702B2EBC702E6
:102C700061EB57714FEA816141EA92114FEA82623A
:102C800042EA90124FEA806015EB4C2544F10004B3
:102C90004FEAD13706FB07FC4FEA1C4C0CFB0BF745
:102CA000D21B03FB0CF761EB07010CFB0EF7B0EB3B
:102CB000074072EB17420CFB08F734BFA2EB074248
:102CC000B2EB074261EB17414FEA813141EA924191
:102CD0004FEA823242EA90424FEA80304FEA0C7665
:102CE00015EB1C1544F1000448EA03434EEA0B4877
:102CF0004FF0000EB2EB080C71EB030724BF6246E5
:102D000039464EEB0E0E4FF0000B00185241494170
:102D10004BEB0B0BB2EB080C71EB03077BF1000BD9
:102D200024BF624639464EEB0E0E4FF0000B0018E2
:102D3000524149414BEB0B0BB2EB080C71EB030713
:102D40007BF1000B24BF624639464EEB0E0E51EA72
:102D5000020718BF46F0010616EB0E7655F1000289
:102D600054F1000103D5BDE88901BDE80088BDE844
:102D70008901BDE80048B619524141EB0101A3F1B8
:102D80000103704780807F7E7D7C7B7A79787776BF
:102D900076757473727171706F6E6E6D6C6C6B6A38
:102DA0006A696868676666656464636362616160D6
:102DB000605F5F5E5E5D5D5C5C5B5B5A5A59595853
:102DC00058575756565555555454535352525251BD
:102DD000515050504F4F4F4E4E4D4D4D4C4C4C4B13
:102DE0004B4B4A4A4A49494948484847474747465A
:102DF0004646454545444444444343434342424296
:102E0000424141419C46002B30D477002BD04FEA01
:102E100037071CB503B44FF010004FF01001BAF1A2
:102E2000000F06D0BCF1000FDCBF40F0080040F0FE
:102E300008014FF000000FBCBDE810400BF1010B82
:102E4000BBF1010F08BF5FEA170722BF12F10102B1
:102E500011F101014FF0004143F1000300F0004087
:102E600043EA00007047F9D35708D0E746EA064620
:102E70004FEA164613F1400F1FDD13F1200FDFBF9D
:102E800016430A46002120335B42BED0C3F120071F
:102E900046EA06464FEA164602FA07F746EA0706EA
:102EA00022FA03F2C3F1200701FA07F742EA070208
:102EB00021FA03F14FF00003A7E746EA020646EACB
:102EC00006464FEA164646EA0106BCBF46EA0646F3
:102ED000360C4FF000034FF000024FF0000194E772
:102EE0002DE9804C70B49A46934691E8380007C8A3
:102EF00031EA400C48BF34EA430C03D5FFF7E6FD46
:102F0000FFF780FFF0BCBDE8008C2DE9804C70B469
:102F10009A46934691E8380007C810F0804F08BFE2
:102F200013F0804F03D100F005F8FFF76BFFF0BC02
:102F3000BDE8008C20F07F4723F07F4C80EA03003F
:102F400000F0004007EB0C03A3F57C53A3F1FE0354
:102F500092F0000F00F0B38095F0000F00F0778042
:102F60002DE901494FEA114021EA00484FEA144691
:102F700024EA064700FB06FC08FB06F607FB08F8F8
:102F800018EB06484CEB164C00FB07F718EB07480C
:102F90004CEB17404FEA124B22EA0B4E4FEA154614
:102FA00025EA06470BFB06FC0EFB06F607FB0EFEAA
:102FB0001EEB064E4CEB164C0BFB07F71EEB074EB9
:102FC0004CEB174B18EB0B0840F1000018EB0E0B05
:102FD00058EB000840F100008F1A4FF000014FF04D
:102FE00000063CBFC943661B14BFB5EB040C0021AF
:102FF0003CBFC943F61B4FEA174427EA04454FEA92
:103000001C472CEA074C04FB076205FB07F70CFB87
:1030100005F616EB074642EB174204FB0CFC16EBD9
:103020000C4642EB1C421BEB060658EB02024141E8
:103030004EEA8E0E46EA9E0601D5BDE80189B61914
:10304000524141EB0101A3F10103BDE801894FEABF
:10305000144524EA05464FEA114721EA074C05FBCF
:1030600007F406FB07F70CFB06F111EB074144EBF5
:10307000174405FB0CFC11EB0C4144EB1C444FEADC
:10308000124722EA074C05FB07F206FB07F70CFB89
:1030900006F616EB074642EB174205FB0CFC16EB57
:1030A0000C4642EB1C456A1854F1000148BF7047BA
:1030B000B619524141EB0101A3F10103704795F0AC
:1030C000000F37D04FEA114221EA02464FEA144777
:1030D00024EA074C02FB07F106FB07F70CFB06F49A
:1030E00014EB074441EB174102FB0CFC14EB0C44BE
:1030F00041EB1C414FEA154725EA074C02FB07F557
:1031000006FB07F70CFB06F616EB074645EB1745E3
:1031100002FB0CFC16EB0C4645EB1C42121951F15C
:10312000000148BF7047B619524141EB0101A3F1BC
:10313000010370474FEA144524EA05464FEA114758
:1031400021EA074C05FB07F106FB07F70CFB06F22B
:1031500012EB074241EB174105FB0CFC12EB0C4252
:1031600051EB1C414FF0000648BF7047921841EBED
:103170000101A3F101037047490050EAC12018BFC3
:1031800004204A0D18BF40F0010040F2FF72B2EB7C
:10319000515F08BF40F00200012808BF05207047BA
:1031A0002DE9F0414F1E00EBC7010446D1E90001B3
:1031B00015461E4637F006020DD02A46334601F06A
:1031C00063F97F1E04EBC703D3E9002300F0F2FE8E
:1031D00037F00602F1D1022F25D0042F13D0062F8D
:1031E00018BFBDE8F0812A46334601F04DF9D4E915
:1031F0000A2300F0DFFE2A46334601F045F9D4E900
:10320000082300F0D7FE2A46334601F03DF9D4E901
:10321000062300F0CFFE2A46334601F035F9D4E903
:10322000042300F0C7FE2A46334601F02DF9D4E905
:10323000022300F0BFFE2A46334601F025F9D4E907
:103240000023BDE8F04100F0B5BE000000221346A7
:103250001046014900F06ABF0000F03F012201F072
:1032600052BF00F0A7BE002213461046114600F0E0
:103270005DBF40F2013200204FF0E04101F043BF5A
:10328000024A0020110701F03EBF000001FDFFFFD0
:1032900030380A2801D20120704700207047000012
:1032A0002DE9F84F04460D4621F000400091734986
:1032B000814211DC7249884201DC06D12CB12046E2
:1032C0002946BDE8F84FFFF7C9BF6E48002DCCBFB7
:1032D0006D496E49BDE8F88F6D49814211DD6D4938
:1032E0008142D8BF4FF0FF366DDD20462946FFF7FB
:1032F00043FF042808BFFFF7C3FF20462946BDE867
:10330000F88F6549654F25F00045814233DD6449FA
:10331000814219DD002632464FF08043204629467F
:1033200000F048FE80468A4601222046294601F0E8
:10333000EAFE00223B4601F0B3FA4246534600F053
:10334000F5FE04460D463EE001260022BA463B4605
:103350002046294600F02EFE80460F4600225346A6
:103360002046294601F09CFA42463B4600F0DEFE2C
:1033700004460D4627E04B4981421BDDDFF828A1BA
:103380000226002253462046294601F07DF80022FD
:103390003B4600F00FFE80460F4600225346204673
:1033A000294601F07DFA42463B4600F0BFFE044646
:1033B0000D4608E0032622462B4600203B4900F03C
:1033C000B5FE04460D4622462B461046194601F02E
:1033D0005BF88B46824602460B4601F055F80746DD
:1033E0000246334888460B4606217844FFF7D8FE4C
:1033F00052465B4601F048F882462E488B463A46D4
:10340000434605217844FFF7CBFE3A46434601F098
:103410003BF802460B46002E504659460CDA00F0A7
:10342000C9FD22462B4601F02FF801B022462B465B
:10343000BDE8F04F01F05CB900F0BCFD22462B4620
:1034400001F022F81C4A7A4402EBC603D3E90023B8
:1034500001F026FA22462B4601F022FA174A7A4456
:1034600002EBC603D3E9002301F042F9009A002AD7
:10347000B8BF81F00041BDE8F88F000000001044A3
:103480000000F07F182D4454FB21F93FFB21F9BFC8
:103490000000DC3F0000203E0000F33F0000F03F52
:1034A0000000E63F008003400000F83F0000F0BF4E
:1034B000121E0000D01D00006E1D0000361D000011
:1034C0002DE9F04D1D460C4694B0174621F0004101
:1034D00023F00043002814BF4FF0010C4FF0000C04
:1034E0000CEB440CFB4A0CEB02064FEA620C6645FF
:1034F0002BD33E0018BF012606EB45061644F64ABC
:10350000964222D3F54A53EA070C02D0944205D1E1
:1035100048B914B000201146BDE8F08D002808BF5E
:103520004FF0000C01D04FF0010C0CEB440212F5EF
:10353000001F0AD8002F14BF4FF0010C4FF0000CF1
:103540000CEB450212F5001F07D914B03A462B4682
:103550002146BDE8F04DFFF784BE0022DFF880A3CE
:10356000002CB8BF534526DADFF878C36345A8BFFF
:10357000022220DADFF864C39C451CDCDFF868C354
:103580000CEB235CBCF1140F08DDCCF1340627FAF8
:1035900006FC0CFA06F6BE420DD108E05FB9CCF18C
:1035A000140623FA06FC0CFA06F69E4203D10CF030
:1035B0000102C2F1020251EA000C19D1002D17DA02
:1035C000002C18BF022A01D0012A07D00220FCF7E4
:1035D0006DFF14B0BDE8F04DFFF738BE0220FCF7D8
:1035E00065FFFFF733FE14B081F00041BDE8F08DB8
:1035F000B7F1000C6CD1534525D104F1804212F58E
:10360000801201BF00280020B44914B008BFBDE8F3
:10361000F08DB248884207DC002DA1BF60462946E4
:1036200014B0BDE8F08D07E0002DBFBF604685F007
:10363000004114B0BDE8F08DAC497944D1E90001F6
:1036400014B0BDE8F08DDFF894C2634525D1002D9C
:103650001FDA19B1514512D1D8B909E0002840F05C
:10366000F6829F4A214614B062F31E01BDE8F08D38
:103670000020214614B060F31E01BDE8F08D08DA89
:1036800014B02346BDE8F04D02460020614600F02C
:103690004DBD14B02146BDE8F08D514518DAB5F1A5
:1036A000804F0DD0A5F1005CBCF1FF5C10D1B4F1EE
:1036B000000C0DDB14B06146BDE8F04D00F0F6BB28
:1036C000234614B00246BDE8F04D194600F0DCBEBA
:1036D000060024F0004C3BD1D9B1514533D1002C28
:1036E00006DD002DA1BF0020514614B0BDE8F08DCD
:1036F000002C01DD002D1BDB002C13DA002D11DB6B
:10370000012A4FF0000014BF7549794914B0BDE893
:10371000F08D022A18BF002C0AD0012A08D1002CF3
:1037200006DA0AE0002CB8BF002D11DA012A04D015
:10373000002014B00146BDE8F08D14B000204FF019
:103740000041BDE8F08DA1F14050B0F17F601AD08A
:10375000012000EBE47050EA020421D05F4C521EBD
:103760004FF0000B104304BF4FF0000B614C624858
:1037700083427DDD614A6248934229DD884217DB3E
:10378000002D2FDB41E0002C00DA4AB1022A0CBFE9
:1037900001204FF0FF3014B0BDE8F04D00F020BE26
:1037A0000120FCF783FE14B0BDE8F04DFFF75BBDD0
:1037B0004A4A8A420CDC002D14DC0220FCF776FE1B
:1037C000FFF75EFD61F31E0414B02146BDE8F08DE5
:1037D000814202DA002D18DA04E0404B994220DDE4
:1037E000002D12DD0220FCF761FEFFF742FD0546C9
:1037F0000E46002253465846214600F045FE14B0BE
:1038000066F31E012846BDE8F08D0220FCF74EFE4F
:10381000FFF736FD0A46214614B062F31E01BDE8EB
:10382000F08D00223046614601F03AF8064688469F
:103830006FF0010201F067FC4FF05532314B00F0A0
:1038400057FF3246434600F01FFE00222E4B00F089
:103850004FFF8A463246434602901046194600F012
:1038600013FE5346029A00F00FFE8246324600E0F5
:1038700054E0059143464FF0C040244900F004FE57
:10388000CDE90C01224A214B5046059900F0FCFD80
:10389000824601911F4A204B3046414600F0F4FD1C
:1038A0005246019B00F0FCFF82460B4602460991FE
:1038B000DDE90C0100F07EFBDDE90C2300268846E3
:1038C000304600F0EDFF5246099B00F011FF024622
:1038D00000F07EB9FFFF1F00FFFF0F000000F03F68
:1038E0000000F07F0000404301FCFFFFC21C00000D
:1038F0000000F0FF0000F0BF0000E0410000F043D6
:10390000FFFFEF3F5555D53F0000E03F4715F73F1C
:10391000FE822B6544DF5DF80BAE543E0020B1F50E
:10392000801F07DA35223046614601F0ECFB06467F
:103930006FF0340000EB2150A0F2FF300190C1F392
:10394000130040F07F6141F040510291FE498842EE
:10395000D8BF002004DDFD498142C8BF012001DD40
:103960000F9008E000200F900198401C01900298F1
:10397000A0F5801002900299F548784405910F99BE
:1039800000EBC1001290D0E900233046059900F009
:1039900087FFCDE90C011298D0E900233046059944
:1039A00000F008FB02460B460020EA4900F0BEFB8F
:1039B0000B46CDE908010246DDE90C0100F064FD8B
:1039C0000A90E5488A464FF000087844029900685A
:1039D00010904FF0005040EA61010F9801EB8040D9
:1039E00000F5002112981191D0E90023109800F001
:1039F00057FF3246059B00F07BFE4246534600F0DF
:103A000043FDDDE91023064603914046514600F090
:103A10003BFDDDE90C2300F06BFE3246039B00F01A
:103A20003FFFDDE9082300F02FFD03910A9A129071
:103A300053461046194600F027FD06460246C74881
:103A40000B46029106217844FFF7AAFB029B3246FF
:103A5000059108901046194600F016FD059B089A3E
:103A600000F012FD064609915346404619460A9A4F
:103A700000F0A0FA039B129A00F006FD3246099B63
:103A800000F098FACDE9080142465346104619461F
:103A900000F0FAFC02460B46029104900020B04967
:103AA00000F088FADDE9082300F084FA0E46424669
:103AB000AB4B404600F0F4FE029B049A00F0F0FE8F
:103AC000DDE9082300F014FE4246049102903346DB
:103AD0001046514600F0D8FCCDE90C0153460A9A35
:103AE0000499029800F0D0FC824600913346424689
:103AF0000399129800F0C8FC5246009B00F05AFA55
:103B000082460B4602460991DDE90C0100F052FAAB
:103B1000DDE90C2300268846304600F0C1FE5246FF
:103B2000099B00F0E5FDCDE90801434632464FF020
:103B300060408C4900F0A8FC82460491DDE9080150
:103B4000894A884B00F0A0FC02910090434632461F
:103B50008648874900F098FC029B009A00F02AFAF8
:103B6000844B7B440F9A03EBC203D3E9002300F09C
:103B700021FA00900291019800F032FC0E9003911E
:103B80005046029B009A049900F014FA7A4A7A444B
:103B90000F9B02EBC3030993D3E9002300F00AFA59
:103BA000039B0E9A00F006FA88463046039B0E9A55
:103BB00000F076FE099BD3E9002300F071FE524627
:103BC000049B00F06DFE029B009A00F091FD0246FE
:103BD00000200B4602903846294600F055FC8246EC
:103BE00003912B4638461946029A00F059FE324698
:103BF000434600F049FC5246039B00F0DBF90746C0
:103C00008A46324643462946029800F03DFC054666
:103C10000E463A46534600F0CDF9584A884691423E
:103C200021DBA8EB020353EA000210D12A463346F7
:103C300000F036FECDE90310514A524B384651464A
:103C400000F0B8F9DDE9033200F01CFD21D20220BA
:103C5000FCF72CFCFFF70DFB0A46214614B062F37B
:103C60001E01BDE8F08D484B28F000429A4210D367
:103C7000464A08EB020353EA00027FF4C6AD2A4627
:103C8000334600F00DFE3A46534600F0FBFC7FF64B
:103C9000BCAD0022019228F000403D493D4A01EBB5
:103CA0002051824223DA481C4FF4801121FA00F09F
:103CB0004044394AC0F30A517A44384BA1F2FF31EB
:103CC000CB4020EA0303C0F3130040F48010C1F19D
:103CD0001401C84012680190B8F1000FBCBF404207
:103CE00001902846314600F0DBFD05460E462A4687
:103CF00033463846514600F05DF94FF00008424621
:103D0000274B4046039100F0BFFBCDE90C01254A4B
:103D1000254B4046039900F0B7FB029100902A46DC
:103D200033464046039900F0BBFD3A46534600F047
:103D3000DFFC1E4A1E4B00F0A7FB029B009A00F01E
:103D400039F90746884635E08E9803007AB60B00AD
:103D5000B21800000000F03F3219000016180000F1
:103D60000000084009C7EE3FFD033ADCF5015B1493
:103D7000E02F3EBEEA160000AE16000000009040A4
:103D8000FE822B654715973C00CC904000346F3F76
:103D900001FCFFFF0000E03F44160000FFFF0F00A2
:103DA000432EE63F396CA80C615C20BEEF39FAFE69
:103DB000422EE63F02460B46DDE90C0100F0FAF820
:103DC000DDE90C2305460E4600F06AFD3A464346FF
:103DD00000F08EFC07462A463346059110461946E8
:103DE00000F052FB824602462E4888460B460521CB
:103DF0007844FFF7D5F95246434600F045FB2A4682
:103E0000334600F075FC80468A463A4628463146DD
:103E1000059B00F039FB3A46059B00F0CBF8059175
:103E2000009000224FF080434046514600F038FD9C
:103E300007460391424653462846314600F024FB8C
:103E40003A46039B00F072F9059B009A00F028FDAA
:103E50002A46334600F024FD0022134B00F048FCB4
:103E6000054601980E4601EB00510815002810DCAC
:103E700028463146019A01F046F9FFF77DF90428FA
:103E800008BFFFF7FDF928463146019A01F03BF9DA
:103E900005460B4614B02A4658462146BDE8F04D6B
:103EA00000F0F2BA9C1400000000F03F2DE9F04150
:103EB00006460F4600F028FC041E0D4618BF0120E0
:103EC000284320F00040C0F17F6000F1E040C00FC7
:103ED0000ED0301C18BF0120384320F00040C0F144
:103EE0007F6000F1E040C00F04BF0120FCF7DEFA64
:103EF00020462946BDE8F08110B500290AD008788F
:103F0000002807D005487844FDF7FAFA002801D0C8
:103F1000002010BD0248784410BD000026160000A5
:103F20001E16000010B500290AD00878002807D016
:103F300005487844FDF7E4FA002801D0002010BDC0
:103F40000248784410BD0000161600000E1600004E
:103F500021F0004201F00043A2F16052B2F5801F4F
:103F600028BFD2F17F6C0BD95FEA001C43EAC20282
:103F700042EB507018BF704728BF20F00100704717
:103F8000B2F5801FBCBF184670474FEA410C1CF5C4
:103F9000001F02D2084601F005B870B500F01EFB04
:103FA00000000089FFF7F6BF4FF00040A0F5800049
:103FB0007047000010B591EA030F48BF83F000433B
:103FC00000F17684841A71EB030C05D2121943EBCD
:103FD0000C03001B61EB0C014FEA1154A4EB135CC2
:103FE000DFF81CE11EEA430F18BF9EEA445F00F0B1
:103FF000748021EA045123EA0E0343F48013DCF1B8
:10400000200E32D322FA0CFE10EB0E0023FA0CFE27
:1040100041EB0E01CCF1200E03FA0EFE10EB0E0068
:10402000CCF1200E51F10001B1F5801F32D201EB2D
:10403000045112FA0EF2BDE8104058BF7047401C00
:1040400038BF5FEA420218BF7047002814BF20F053
:10405000010041F100014FEA410313F5001F38BF91
:104060007047A1F1C04100F007BB012A43EB0302F6
:10407000ACF1200CDCF11F0E32BF4FF0000E23FA22
:104080000CF310EB030041EB0451B4EB115FD0D003
:10409000A1EB045101F58011490801EB04515FEADD
:1040A00030000ED350F1000038BF12FA0EFE08D1D6
:1040B000BDE81040C9E7401C38BF5FEA4202CAD1E0
:1040C000C3E7BDE810404FEA410313F5001F38BFB6
:1040D0007047A1F1C04100F0CFBA9EEA445F08D01A
:1040E00011EA5E0FBDE8104004BF01F0004100205E
:1040F0007047BDE8104070B500F070FA64FBBE3E3A
:104100000000E0FF02494FF0000000F0CABF00BF0E
:104110000000F87F491058BFC1F140415B1058BF03
:10412000C3F140438B42EFF3008070472DE9C0415B
:1041300030B4DFF8A4C23CEA111418BF3CEA1314EF
:1041400000F0ED801CEA111481EA030544EAD574FD
:1041500018BF1CEA131500F0C880A4EB050404F195
:104160007F7404F500344FF0004545EAC12145EA6B
:10417000C32341EA505143EA52534FEAC0204FEA69
:10418000C222994208BF904200F09D804FEA136519
:104190000FF24416765D4FEA134506FB05F7C7F1AB
:1041A000807706FB07F74FEAD737A7FB036876420D
:1041B000A7FB06CEC8F5803838BFA8F1010807FB79
:1041C00008E6A6FB028C4FF0000EE6FB03CEDCF106
:1041D000000CCEF1004E38BFAEF1010EA6FB0C581C
:1041E0004FF00007E6FB0E87A1FB08C6A0FB07CE39
:1041F00016EB0E064FF0000545F10005E1FB0765E3
:1042000015F1E04E7EBFA4F580345FEA46066D41AD
:1042100016F1800745F100054FEA172747EA0567C1
:104220004FEA15254FEA0666A6F1DE46B6F1805F35
:1042300020D9384605EBC47124F0010C01EB0C11B8
:10424000BCF1FE6F02D8F0BCBDE8008124425CBF27
:1042500001F5801E9EEAC47F02D4F0BCBDE8008157
:10426000244200F13980A1F1C041F0BCBDE8004119
:1042700000F002BA4FEAD02040EA41504FEAD12183
:104280004FEAD22242EA43524FEAD323A7FB0286E7
:1042900007FB036605FB02661EEA0E0F58BFA6EB7E
:1042A0000056B6EB00564FEA520E4EEAC37E18EBAC
:1042B0000E0E56EB530EBCD518EB02085E417F1C68
:1042C00055F10005B5E74FF480154FF000074FF0AA
:1042D00000064FF00008ACE701F1C04101F00041D9
:1042E0004FF00000F0BCBDE800810CEA131511EAA4
:1042F0000C1F00D00CE013EA0C1F00F026804FF0DA
:10430000000081EA030101F00041F0BCBDE800813A
:10431000F0BCBDE8004181EA030100F0ADB9F0BC9A
:10432000BDE8004170B500F059F900BF097EFC3EC0
:1043300000F007B84FF0000081EA030101F00041EE
:10434000704781EA030100F097B9F0BCBDE8004175
:1043500022494FF000007047FFFDFBF9F7F5F4F23A
:10436000F0EEEDEBE9E8E6E4E3E1E0DEDDDBDAD810
:10437000D7D5D4D3D1D0CFCDCCCBCAC8C7C6C5C46E
:10438000C2C1C0BFBEBDBCBBBAB9B8B7B6B5B4B385
:10439000B2B1B0AFAEADACABAAA9A8A8A7A6A5A470
:1043A000A3A3A2A1A09F9F9E9D9C9C9B9A99999834
:1043B0009797969595949393929191908F8F8E8ED7
:1043C0008D8C8C8B8B8A8989888887878685858464
:1043D00084838382828181800000FF070000F87F50
:1043E00010F0004248BF4042B0FA80F310FA03F1E7
:1043F0000AD0C3F11D0303F5806302EB03524FEAB9
:10440000415002EBD12170474FF00000704700008F
:1044100051EA030C17D41CF5801F58BFBCF5801F50
:1044200000F10680994218BF704708BF904270475C
:1044300007D711F5801F58BF13F5801F19D4994273
:104440007047894270471CF5801F08D5BCF5801F56
:10445000F7D58B4218BF704708BF824270474FF4B0
:10446000001C1CEB410F38BF1CEB430F01D28B42E9
:10447000704770B500F0B2F8922449004FF0005137
:104480004FF08053FFF746BE70B5DFF848C11CEA15
:10449000111E1EBF1CEA13159EEA0C0F95EA0C0FA5
:1044A00000F06F8081EA03044EEAD47EAE4421EA34
:1044B0004C1123EA4C1341F4801143F48013AEF104
:1044C0007F7EA1FB024CA0FB0365361955EB0C0562
:1044D000A1FB034C4CF10003A0FB021C16EB0C06E5
:1044E000654153F10003094218BF46F0010613F479
:1044F000007F0BD14FEA03314FEA053041EA1551F5
:1045000040EA165034036FF003020AE04FEAC32179
:104510004FEAC52041EA555140EA5650F4026FF087
:10452000020202EB2E4201EB025585EACE710AD05F
:104530005FEA440C18BF24F0004450F1000041F140
:10454000000120EAD47040F2FE7C624500D270BDCA
:10455000A84214BF4FF080444FF04044002E08BFE3
:104560000024BEF1806FA8BFA1F1C041BDE870403A
:1045700080F2828001F1C04101F000414FF0000063
:1045800070470CEA13159EEA0C0F18BF95EA0C0F42
:1045900006D081EA030E4FF000000EF0004170BD1E
:1045A00000F01CF88900013E00F007B800F009B8DF
:1045B0004FEA430C5FEA5C5C08D081EA030100F03B
:1045C0005BB84FEA410C5FEA5C5CF6D102494FF000
:1045D000000070470000FF070000F87F0EF1020E98
:1045E0002EF0030E5EF8046B364205D4012A43EB2D
:1045F000030515F5001F12D8012841EB010C1CF52D
:10460000001F0CD80ED14FEAD17C0CEB4C0C0CF1F6
:10461000020C15F5001F08BF4CEBD37C04E04FF0F3
:10462000080C01E04FEAD37C0CEB4C0526FA05F6AA
:1046300006F00706B6F1040C06D20EEB860CBDE8B8
:1046400070404CF0010C6047DFE80CF0090B0202EF
:104650004FF00041A1F500214FF0000070BD194658
:104660001046012851EB010418BFD4F5001484BF93
:10467000002001F0004170BD0808A0F500114FEACC
:104680003101704753EA010C17D41CF5801F58BF45
:10469000BCF5801F00F106808B4218BF704708BF31
:1046A0008242704707D713F5801F58BF11F5801F4E
:1046B00019D48B4270479B4270471CF5801F08D568
:1046C000BCF5801FF7D5994218BF704708BF9042CC
:1046D00070474FF4001C1CEB430F38BF1CEB410F1D
:1046E00001D2994270470FB40CBC03BCFFF7C1BEA6
:1046F00010B591EA030F81F000413FF563AC83F000
:10470000004300F0D5B800002DE9F04101F5801C10
:10471000BCF5001FC0F2A9804FEA115C21EA0C51E0
:1047200041F480110CF1FD0C5FEA5C0C0CF5C07CCF
:1047300001D340004941890241EA905187022EA4E9
:104740008E0EA45D0A0C04FB04F602FB06F6C6F10D
:104750004046A4FB0662F60D46EA422606FB06F436
:10476000A4FB01235242C3F1404338BF5B1EA6FBAA
:1047700002420024E6FB0324D20B42EA4446A6FB95
:104780000623A1FB02E2A3FB07E4E3FB61426442D0
:10479000C2F1404E38BFAEF1010EA6FB04234FF02C
:1047A0000002E6FB0E32A2FB03463400E2FB626429
:1047B000A1FB06E6A4FB07E8E4FB61687642C8F1CA
:1047C000405838BFA8F10108A2FB06E4A3FB08E5A6
:1047D000E2FB6854A1FB05E6A7FB04E8E1FB648665
:1047E00018F1200556F10006A80940EA8660B109D3
:1047F000A8F11B0808F03F08B8F10A0F1CD901EB1B
:104800000C51BDE8F08100BFFCF5EEE8E2DDD8D345
:10481000CFCBC7C3C0BDB9B6B4B1AEACA9A7A5A331
:10482000A19F9D9B9A9896959392908F8D8C8B8942
:104830008887868584838281A0FB006800FB01F263
:1048400008EB4208B8EB872807D5341858EB010469
:10485000D5D5401C51F10001D1E7341A78EB0104A1
:10486000CDD4401E71F10001C9E75FEA4C0C5FEA4C
:104870009C5C0DD105D301F000414FF00000BDE874
:10488000F081BDE8F04170B5FFF7A8FE6DDBFFBE1B
:10489000BDE8F04101494FF0000070470000F87F8B
:1048A00010B591EA030F48BF83F000433FF58AAB90
:1048B000841A71EB030C07D28CF0004C121943EBF5
:1048C0000C03001B61EB0C014FEA1154A4EB135CC9
:1048D000DFF8A4E11EEA430F18BF9EEA445F00F030
:1048E000B48021EA045123EA6E035242C3EB6E0303
:1048F00038BF5B1EDCF1200E25D322FA0CFE10EB34
:104900000E0043FA0CFE41EB0E01CCF1200E03FA2F
:104910000EFE10EB0E00CCF1200E51F1000129D457
:1049200001EB045112FA0EF2BDE8104058BF704777
:10493000401C1CBFB2F1004F704700280CBF491C3F
:1049400020F00100704712EB020E43EB030218BF88
:104950004FF0010E4EEA4202ACF1200CDCF11E0ECB
:1049600056D943FA0CFE10EB0E00CCF11E0E51F19D
:10497000FF31D5D50EF1010E12FA0EFE404141EB8A
:10498000010101EB445C5FEA5C5C10D901EB04516E
:1049900010EBDE7038BFBEF1004FBDE8104018BF0D
:1049A000704700280CBF491C20F00100704734D22A
:1049B0004FEAD42C24F4006411F500111BD0B1FA95
:1049C00081F20B3AA41AA41ED2F12003914030FACE
:1049D00003F31943904001EBCC7101EB0451002C1F
:1049E000BDE81040A8BF704701F1C04101F000418F
:1049F0004FF000007047B0FA80F310FA03F102D1D3
:104A0000BDE810407047E41A173C4805C90AE2E7C0
:104A100001EB0451BDE81040704749104FEA3000E7
:104A200001EB0451BDE8104002E04FF00001704777
:104A30004A0008BF0042F8D0B2F5001F28BF7047F7
:104A400001F000414FF0000070479EEA445F07D03C
:104A500011EA5E0FBDE8104004BF0021002070473E
:104A6000BDE8104070B5FFF7B9FD00BF40DFF63E6E
:104A7000104683F0004170470000E0FF43004FEA1A
:104A8000D30C4FEA3C0C43401FBF40070CF1605170
:104A900013F0FE4F70471CF0006F03D10CF0004183
:104AA000002070470CF0004343EA507040EACC000D
:104AB00010B500F031FA00BF000000924FEA00018B
:104AC000FFF7DABD4FF00041A1F500214FF00000E3
:104AD0007047000090EA010F48BF81F0004100F1EB
:104AE0006E82421A3CBF801A89184FEAD052A2EB5C
:104AF000D1534FF07F4C1CEA410F18BF9CEA026F64
:104B000000F03B804FF0004C4CEA00204CEA0121C1
:104B100021FA03FC10EB0C0C1ED202F1FF325FEA0B
:104B20001C2040EBC25038BF70471CF07F0F4FEA8B
:104B3000400C18BFBCF17F4F38BF7047C3F1200352
:104B4000994008BF20F00100BCF17F4F38BF70478B
:104B5000A0F1C04000F026BA4FEA3C00000A40EB4A
:104B6000C25028BF1CF0FF0F4FEA400CE6D018BF20
:104B7000BCF17F4F38BF7047EAE79CEA026F05D06F
:104B800010EA5C0F08BF00F00040704710B500F05D
:104B9000C3F900BF64FBBE3E10B500F0F5F80CBFD2
:104BA0000120002010BD10B500F0EEF814BF012068
:104BB000002010BD10B500F047F98CBF0120002087
:104BC00010BD10B500F040F92CBF0120002010BD31
:104BD00010B500F06DF994BF0120002010BD10B594
:104BE00000F066F934BF0120002010BD401058BF0E
:104BF000C0F14040491058BFC1F140418142EFF33C
:104C0000008070474FF47F0C1CEAD0121EBF1CEAD4
:104C1000D11392EA0C0F93EA0C0F00F0858090EA12
:104C2000010F48BF42F4807240F4000C41F40000D0
:104C30002CF07F4120F07F4000B5A2EB03028142BF
:104C40000FF2081CACEB504E9EF800E0C0F10000E3
:104C50004FEA4E0E00FB0EFC38BF49004FEA2C1CF9
:104C60000CFB0EF34FEACE1E0EEB635E4FEA112CE7
:104C70000EFB0CFC4FEAC1214FEA1C5300FB031151
:104C800002F5FA024FEA112C0EFB0CFC4FEA01313F
:104C90004FEADC4C00FB0C1142EB2242C14228BF20
:104CA00009184CEB03335DF804EB10EB410143EBC7
:104CB000C250B2F57C0F38BF704729D512F0F00F03
:104CC0001CBF00F1C04000F00040704700818283AB
:104CD0008485868788898B8C8D8E8F91929395960B
:104CE00097999A9C9D9FA0A2A3A5A7A8AAACAEB095
:104CF000B2B3B5B7B9BCBEC0C2C5C7C9CCCED1D49A
:104D0000D7D9DCDFE2E6E9ECF0F3F7FAFE000000C9
:104D10004FEA400C0CF1807CBCF17E4F28BF7047FD
:104D2000B0F1C04000F03EB90CEAD11390EA010F97
:104D300048BF42F48072624538BF634507D213F41E
:104D40007F0F16D080EA010000F00040704710B5D8
:104D500000F0E2F8097EFC3E00F005B880EA0100B0
:104D600000F00040704780EA010000F0004000F0D1
:104D700019B912F47F0F04BF0248704780EA01009E
:104D800000F010B90000C07F50EA010C00F1138060
:104D90001CF5000F58BFBCF5000F01D488427047C6
:104DA00007D710F5000F58BF11F5000F15D4884232
:104DB0007047894270471CF5000F04D5BCF5000F01
:104DC000F7D5814270474FF0807C1CEB400F38BF15
:104DD0001CEB410F01D28142704710B500F09CF8E6
:104DE000922449004FF000504FF08051FFF7FEBE73
:104DF00010F0004148BF4042B0FA80F310FA03F2CD
:104E0000C3F19D030BD051EAC35101EB12205306AD
:104E100038BF704700F1010008BF20F00100704763
:104E2000B0FA80F310FA03F2C3F19D030AD0D9055A
:104E300001EB1220530638BF704700F1010008BF94
:104E400020F001007047000050EA010C00F11380CF
:104E50001CF5000F58BFBCF5000F01D48842704705
:104E600007D710F5000F58BF11F5000F15D4884271
:104E70007047894270471CF5000F04D5BCF5000F40
:104E8000F7D5814270474FF0807C1CEB400F38BF54
:104E90001CEB410F01D28142704710B500F03CF885
:104EA000922449004FF080504FF00051FFF79EBE12
:104EB00050EA010C00F113801CF5000F58BFBCF53F
:104EC000000F01D48842704707D710F5000F58BF74
:104ED00011F5000F15D488427047894270471CF5C0
:104EE000000F04D5BCF5000FF7D5814270474FF095
:104EF000807C1CEB400F38BF1CEB410F01D281427C
:104F0000704710B500F008F8922449004FF00050A7
:104F10004FF08051FFF76ABE0EF1020E2EF0030E25
:104F20005EF8044B244204D44FEA4102B2F17F4FB1
:104F300011D84FEA4003B3F17F4F0CD80ED14FEA9E
:104F4000D07C0CEB4C0C0CF1020CB2F17F4F08BF83
:104F50004CEBD17C04E04FF0080C01E04FEAD17C2F
:104F60000CEB4C0324FA03F404F00704B4F1040C32
:104F700006D20EEB840CBDE810404CF0010C6047EB
:104F8000DFE80CF0070802024FF00040A0F58000B7
:104F900010BD0846420018BFD2F1807288BF00F0F1
:104FA000004010BDFF2141EAD050C005704700000D
:104FB00090EA010F48BF81F000413FF592AD421ADF
:104FC00004D882F00042A0EB020011444FEAD05214
:104FD000A2EBD1534FF07F4C1CEA410F18BF9CEA63
:104FE000026F4AD04FF0004C4CEA00204CEA0121FD
:104FF00021FA03FCB0EB0C0C0FD412F0FE0F36D0EC
:105000005FEA4C001DD5001240EBC25038BF70471C
:105010001CF03F0F18BF70470BE05FEA1C20A2F1A5
:10502000010240EBC25038BF70471CF07F0F18BF21
:105030007047C3F12003994014BF401E20F00100C7
:1050400070474FEA1223800808BF7047B0FA80FC0F
:10505000A2EB0C02CCF1280C60FA0CF093EA122FB0
:1050600004BF00EBC25070474FEAC3707047130A89
:105070005FEADC1008BF7047F6E79CEA026F04D0D5
:1050800010EA5C0F08BF0020704710B5FFF744FF1F
:1050900040DFF63E81F000407047FBF739BEFBF77A
:1050A0006DBF0CF00F03092B08BF082000F05980DA
:1050B0000A2B0BD0082B18BF704708BF1CF0400FFD
:1050C0000AD04FF000004FF0000170471CF0400F75
:1050D00018BF4FF0004070471CF0100F08D000F0D0
:1050E0007F4220F0704342EAD3014FEA4370704799
:1050F00000F0604021F07F4242EA000201F07F4070
:1051000040EA727070474FF0FF0C4CF4E06C1CEA00
:1051100011531CBF9CEA030C9445C2BFDA4201EB59
:1051200002517047002B0DD0BCF1000F0FD001F0E1
:105130000041002AA4BF41F0E04141F07F614FF0FF
:105140000000704701F000414FF00000704750EA46
:1051500001334FF09B0C18BF4CF0806C7EF4D2AF43
:1051600070471CF4801F11D01CF4E02F03D06FEAAD
:10517000CC31490070474FF04050EFF3008222F0ED
:10518000704242EA000282F3008870474FF000004C
:1051900070470000000000004FBB610567ACDD3FB9
:1051A000182D4454FB21E93F9BF681D20B73EF3F4E
:1051B000182D4454FB21F93FE2652F227F2B7A3CC6
:1051C000075C143326A6813CBDCBF07A8807703C7F
:1051D000075C143326A6913CC4EB98999999C9BFF2
:1051E000711623FEC671BCBF6D9A74AFF2B0B3BF27
:1051F0009AFDDE522DDEADBF2F6C6A2C44B4A2BFE7
:105200000D5555555555D53FFF8300922449C23F52
:105210006E204CC5CD45B73F513DD0A0660DB13F86
:10522000EB0D76244B7BA93F11DA22E33AAD903F98
:10523000000000000000F03F000000000000F83F08
:1052400000000000000000000000004003B8E23F42
:10525000000000000000000006D0CF43EBFD4C3EF4
:10526000033333333333E33FFFAB6FDBB66DDB3FE9
:105270004D268F515555D53F01411DA96074D13F31
:1052800065DBC9934A86CD3FEF4E454A287ECA3F2B
:105290003E5555555555C53F93BDBE166CC166BFAD
:1052A0002CDE25AF6A56113FF16BD2C541BDBBBEA6
:1052B000D0A4BE726937663E000000000000000006
:1052C000303132333435363738394142434445463C
:1052D0004030580030313233343536373839616236
:1052E0006364656640307800040000080000000038
:1052F000000000020001000010000000000000009B
:105300000000000000000000303132333435363701
:1053100038396162636465667870003031323334E5
:10532000353637383941424344454658500000002D
:1053300002400000000000A0000000000540000046
:10534000000000C8000000000C4000000000409C6D
:1053500000000000194000000020BCBE000000005A
:1053600034400000BFC91B8E00000004B54000009F
:10537000504BCFD06607E2CF010000006C41000027
:105380003E8251AADFEEA73401000000D94200009E
:10539000DCB5A0E23A301F97FFFFFFFFB4450000E5
:1053A000FD25A0C8E9A3C14FFFFFFFFFFF3F00009D
:1053B0000000008000000000FF3F000000000080AF
:1053C00000000000416E676C6520496E7374616E69
:1053D00063650D0A004779726F20496E7374616EC0
:1053E00063650D0A0053657474696E6720416E67CA
:1053F0006C6520746F2030204465677265650D0A06
:105400000053657474696E6720416E676C65207423
:105410006F203930204465677265650D0A00536559
:105420007474696E6720416E676C6520746F202DFF
:105430003930204465677265650D0A0053657474E0
:10544000696E6720416E676C6520746F203435206B
:105450004465677265650D0A0053657474696E670B
:1054600020416E676C6520746F202D3435204465B3
:10547000677265650D0A00583A2025660D0A593A8B
:105480002025660D0A593A2025660D0A00466C6FE4
:105490006174696E67204E756D6265723A20252EC3
:1054A00032660D0A0049443A2025780D0A0052451B
:1054B00044205241573A2025780D0A475245454E1F
:1054C000205241573A2025780D0A424C554520522A
:1054D00041573A2025780D0A00524544001B5B32A3
:1054E0004A00583A20256620593A202566205A3A23
:1054F00020256600416E676C653A25302E326600C5
:10550000436F6C6F723A257300000000585600001C
:105510000000002004000000E80200005C560000CB
:105520000800002080050000080300001C000000A7
:1055300043000000F8FFFFFF0C0000000E00000019
:105540000F0000002E0000001001000043000000CA
:10555000F8FFFFFF00404040404040404040414194
:105560004141414040404040404040404040404038
:1055700040404040400502020202020202020202D2
:1055800002020202022020202020202020202002CF
:10559000020202020202909090909090101010105F
:1055A00010101010101010101010101010101010FB
:1055B000020202020202888888888888080808088F
:1055C000080808080808080808080808080808085B
:1055D0000202020240000000000000000000000083
:1055E00000000000000000000000000000000000BB
:1055F00000000000000000000000000000000000AB
:10560000000000000000000000000000000000009A
:10561000000000000000000000000000000000008A
:10562000000000000000000000000000000000007A
:10563000000000000000000000000000000000006A
:10564000000000000000000000000000000000005A
:0C56500000000000000000000208040040
:040000050000026D88
:00000001FF
